:0400000069EF04F0B0
:10060000004D4F544F523153544F50202020202042
:1006100020004D4F544F523253544F502020202031
:100620002020004D4F544F5231434C4F434B5749BC
:10063000534520004D4F544F5232434C4F434B577C
:1006400049534520004D4F544F5231414E54494378
:100650004C4F434B004D4F544F5232414E5449433F
:100660004C4F434B0000030E946E000E956E000E2F
:10067000936E010E23EC04F00F0E23EC04F0380E01
:1006800023EC04F00768086809680A680C0E23EC7C
:1006900004F082A04EEF03F050EF03F09CEF03F064
:1006A000020E07180810D8A458EF03F05AEF03F011
:1006B0005CEF03F007680868074A082A82B063EF16
:1006C00003F065EF03F05EEF03F0800E23EC04F01F
:1006D00007500810D8A46FEF03F071EF03F079EF23
:1006E00003F082848296230E066E53EC04F09CEF96
:1006F00003F007040810D8A480EF03F082EF03F0A2
:100700008AEF03F082948286450E066E53EC04F065
:100710009CEF03F0020E07180810D8A492EF03F024
:1007200094EF03F09CEF03F082948296010E066E24
:1007300053EC04F09CEF03F082A2A1EF03F0A3EFCF
:1007400003F046EF03F0020E09180A10D8A4ABEF2D
:1007500003F0ADEF03F0AFEF03F009680A68094A50
:100760000A2A82B2B6EF03F0B8EF03F0B1EF03F05C
:10077000C00E23EC04F009500A10D8A4C2EF03F015
:10078000C4EF03F0CCEF03F08288829A340E066E39
:1007900053EC04F046EF03F009040A10D8A4D3EF99
:1007A00003F0D5EF03F0DDEF03F08298828A550E57
:1007B000066E53EC04F046EF03F0020E09180A101F
:1007C000D8A4E5EF03F0E7EF03F0EFEF03F0829832
:1007D000829A120E066E53EC04F046EF03F046EFD9
:1007E00003F000EF00F0016E8186819801C083FF65
:1007F000818A000E036E000E026E024A032A03BEB7
:100800000BEF04F0035009E1650E025CD8A00BEF7A
:1008100004F00DEF04F0FDEF03F0819A000E056E79
:10082000000E046E044A052A05BE20EF04F0890E6E
:10083000045C130E0558D8A020EF04F022EF04F05A
:1008400012EF04F01200016E8196819801C083FFBF
:10085000818A000E036E000E026E024A032A03BE56
:100860003BEF04F0035009E1650E025CD8A03BEFBA
:1008700004F03DEF04F02DEF04F0819A000E056EB8
:10088000000E046E044A052A05BE50EF04F0890EDE
:10089000045C130E0558D8A050EF04F052EF04F09A
:1008A00042EF04F012005CEF04F006C0F6FF08000F
:1008B000F550F3EC03F0062A06C0F6FF0800F550E9
:1008C0000009D8A466EF04F068EF04F055EF04F0D7
:1008D0001200000EF86E060EF76E000133EF03F003
:00000001FF
