:040000008FEF03F08B
:0B060000006173686962612020000047
:10060C00016E8280829201C083FF8284000E036E91
:10061C00000E026E024A032A03BE1EEF03F00350C3
:10062C0009E1650E025CD8A01EEF03F020EF03F089
:10063C0010EF03F08294000E056E000E046E044A57
:10064C00052A05BE33EF03F0890E045C130E055822
:10065C00D8A033EF03F035EF03F025EF03F01200D1
:10066C00016E8290829201C083FF8284000E036E21
:10067C00000E026E024A032A03BE4EEF03F0035033
:10068C0009E1650E025CD8A04EEF03F050EF03F0C9
:10069C0040EF03F08294000E056E000E046E044AC7
:1006AC00052A05BE63EF03F0890E045C130E055892
:1006BC00D8A063EF03F065EF03F055EF03F01200E1
:1006CC006FEF03F006C0F6FF0800F55006EC03F0E0
:1006DC00062A06C0F6FF0800F5500009D8A479EFE9
:1006EC0003F07BEF03F068EF03F01200000E946E42
:1006FC00000E956E0F0E36EC03F00C0E36EC03F07C
:10070C00010E066E66EC03F0180E36EC03F000EFEB
:10071C0000F0000EF86E060EF76E00017CEF03F091
:00000001FF
