:040000009EEF04F07B
:10060000003000310032003300340035003600374E
:100610000038003900610062006300640065006614
:1006200000000F0EC16EF00E936E000E946E000E61
:10063000956E0F0E58EC04F00E0E816E81B823EF0C
:1006400003F025EF03F02EEF03F0010E58EC04F059
:10065000030E066E88EC04F05EEF03F081BA33EF10
:1006600003F035EF03F03EEF03F0010E58EC04F019
:10067000050E066E88EC04F05EEF03F081BC43EFDC
:1006800003F045EF03F04EEF03F0010E58EC04F0D9
:10069000070E066E88EC04F05EEF03F081BE53EFA8
:1006A00003F055EF03F05EEF03F0010E58EC04F099
:1006B000090E066E88EC04F05EEF03F00D0E816EFD
:1006C00081B865EF03F067EF03F070EF03F0010E00
:1006D00058EC04F00B0E066E88EC04F0A0EF03F06B
:1006E00081BA75EF03F077EF03F080EF03F0010EAE
:1006F00058EC04F00D0E066E88EC04F0A0EF03F049
:1007000081BC85EF03F087EF03F090EF03F0010E5B
:1007100058EC04F00F0E066E88EC04F0A0EF03F026
:1007200081BE95EF03F097EF03F0A0EF03F0010E09
:1007300058EC04F0110E066E88EC04F0A0EF03F004
:100740000B0E816E81B8A7EF03F0A9EF03F0B2EFB3
:1007500003F0010E58EC04F0130E066E88EC04F062
:10076000E2EF03F081BAB7EF03F0B9EF03F0C2EFA5
:1007700003F0010E58EC04F0150E066E88EC04F040
:10078000E2EF03F081BCC7EF03F0C9EF03F0D2EF53
:1007900003F0010E58EC04F0170E066E88EC04F01E
:1007A000E2EF03F081BED7EF03F0D9EF03F0E2EF01
:1007B00003F0010E58EC04F0190E066E88EC04F0FC
:1007C000E2EF03F0070E816E81B8E9EF03F0EBEF83
:1007D00003F0F4EF03F0010E58EC04F01B0E066E6C
:1007E00088EC04F01CEF03F081BAF9EF03F0FBEFA3
:1007F00003F004EF04F0010E58EC04F01D0E066E39
:1008000088EC04F01CEF03F081BC09EF04F00BEF5F
:1008100004F014EF04F0010E58EC04F01F0E066E05
:1008200088EC04F01CEF03F081BE19EF04F01BEF1D
:1008300004F024EF04F0010E58EC04F0010E066EF3
:1008400088EC04F01CEF03F01CEF03F000EF00F065
:10085000016E8280829201C083FF8284000E036E4B
:10086000000E026E024A032A03BE40EF04F003505A
:1008700009E1650E025CD8A040EF04F042EF04F0FD
:1008800032EF04F08294000E056E000E046E044AEE
:10089000052A05BE55EF04F0890E045C130E0558B9
:1008A000D8A055EF04F057EF04F047EF04F0120022
:1008B000016E8290829201C083FF8284000E036EDB
:1008C000000E026E024A032A03BE70EF04F00350CA
:1008D00009E1650E025CD8A070EF04F072EF04F03D
:1008E00062EF04F08294000E056E000E046E044A5E
:1008F000052A05BE85EF04F0890E045C130E055829
:10090000D8A085EF04F087EF04F077EF04F0120031
:1009100091EF04F006C0F6FF0800F55028EC04F053
:10092000062A06C0F6FF0800F5500009D8A49BEF80
:1009300004F09DEF04F08AEF04F01200000EF86E50
:0A094000060EF76E000111EF03F040
:00000001FF
