:0400000061EF03F0B9
:100600000000000E946E000E956E000E066E010E38
:10061000056E05C082FF000E026E000E016E014ADB
:10062000022A600E015CEA0E0258D8A01AEF03F00D
:100630001CEF03F00FEF03F0D8900534056E06347D
:10064000066E06BE2DEF03F0065009E1810E055C33
:10065000D8A02DEF03F02FEF03F009EF03F0000E09
:10066000826E000E086E010E076E07C083FF000E3B
:10067000046E000E036E034A042A600E035CEA0E49
:100680000458D8A046EF03F048EF03F03BEF03F027
:10069000D8900734076E0834086E08BE59EF03F08F
:1006A000085009E1810E075CD8A059EF03F05BEF19
:1006B00003F035EF03F0000E836E05EF03F000EF5B
:0806C00000F0000101EF03F05E
:00000001FF
