:04000000C6EF03F054
:100600000000000E946E000E0E6E010E0D6E0DC0F9
:1006100082FF000E0A6E000E096E094A0A2A600E59
:10062000095CEA0E0A58D8A018EF03F01AEF03F09D
:100630000DEF03F0D8900D340D6E0E340E6E0EBE1D
:100640002BEF03F00E5009E1800E0D5CD8A02BEFCC
:1006500003F02DEF03F007EF03F0000E106E800E95
:100660000F6E0FC082FF000E0C6E000E0B6E0B4A59
:100670000C2A600E0B5CEA0E0C58D8A042EF03F077
:1006800044EF03F037EF03F00FC001F010C002F0A9
:10069000000E046E020E036E64EC03F001C00FF056
:1006A00002C010F010BE60EF03F0105007E1020E20
:1006B0000F5CD8B05EEF03F060EF03F031EF03F0B2
:1006C00003EF03F000EF00F0000E066E04BE6DEFC6
:1006D00003F06BEF03F073EF03F0036C041ED8B06C
:1006E000042A010E066E02BE7AEF03F078EF03F0E3
:1006F00080EF03F0016C021ED8B0022A010E061A28
:10070000000E086E000E076E03500410D8B48BEF75
:1007100003F08DEF03F0B5EF03F0010E056E95EFDA
:1007200003F0D89003360436052A04AE9AEF03F09E
:100730009CEF03F091EF03F0D89007360836035092
:10074000015C04500258D8A0A8EF03F0AAEF03F010
:10075000AFEF03F00350015E0450025A0780D890B7
:1007600004320332052E9CEF03F00650D8B4BBEFE1
:1007700003F0BDEF03F0C1EF03F0076C081ED8B023
:10078000082A07C001F008C002F01200000101EFC2
:0207900003F074
:00000001FF
