:04000000B3EF03F067
:1006000000000F0EC16EF00E936E000E946E0E0E73
:10061000816E81B80EEF03F010EF03F013EF03F0DB
:10062000828031EF03F081BA18EF03F01AEF03F084
:100630001DEF03F0828231EF03F081BC22EF03F063
:1006400024EF03F027EF03F0828431EF03F081BE43
:100650002CEF03F02EEF03F031EF03F0828631EF41
:1006600003F00D0E816E81B838EF03F03AEF03F01E
:100670003DEF03F082805BEF03F081BA42EF03F0BD
:1006800044EF03F047EF03F082825BEF03F081BC9D
:100690004CEF03F04EEF03F051EF03F082845BEF79
:1006A00003F081BE56EF03F058EF03F05BEF03F069
:1006B00082865BEF03F00B0E816E81B862EF03F070
:1006C00064EF03F067EF03F0829085EF03F081BAE7
:1006D0006CEF03F06EEF03F071EF03F0829285EFA1
:1006E00003F081BC76EF03F078EF03F07BEF03F0CB
:1006F000829485EF03F081BE80EF03F082EF03F078
:1007000085EF03F0829685EF03F0070E816E81B8C6
:100710008CEF03F08EEF03F091EF03F0829007EF80
:1007200003F081BA96EF03F098EF03F09BEF03F02C
:10073000829207EF03F081BCA0EF03F0A2EF03F079
:10074000A5EF03F0829407EF03F081BEAAEF03F058
:10075000ACEF03F0AFEF03F0829607EF03F007EF83
:0C07600003F000EF00F0000101EF03F0D7
:00000001FF
