:04000000ACEF05F06C
:100600000000000E946E000E956E010E826E000EBC
:10061000026E000E016E014A022AE90E015CFD0E17
:100620000258D8A016EF03F018EF03F00BEF03F019
:10063000000E826E030E826E000E046E000E036EBC
:10064000034A042AE90E035CFD0E0458D8A02BEFE0
:1006500003F02DEF03F020EF03F0000E826E000E8A
:10066000066E000E056E054A062AE90E055CFD0EB3
:100670000658D8A03EEF03F040EF03F033EF03F04D
:10068000070E826E000E086E000E076E074A082ADB
:10069000E90E075CFD0E0858D8A051EF03F053EFA8
:1006A00003F046EF03F0000E826E000E0A6E000E9D
:1006B000096E094A0A2AE90E095CFD0E0A58D8A0FB
:1006C00064EF03F066EF03F059EF03F00F0E826E54
:1006D000000E0C6E000E0B6E0B4A0C2AE90E0B5C22
:1006E000FD0E0C58D8A077EF03F079EF03F06CEF14
:1006F00003F0000E826E000E0E6E000E0D6E0D4A9F
:100700000E2AE90E0D5CFD0E0E58D8A08AEF03F0FC
:100710008CEF03F07FEF03F01F0E826E000E106E61
:10072000000E0F6E0F4A102AE90E0F5CFD0E1058D6
:10073000D8A09DEF03F09FEF03F092EF03F0000EBF
:10074000826E000E126E000E116E114A122AE90E10
:10075000115CFD0E1258D8A0B0EF03F0B2EF03F019
:10076000A5EF03F03F0E826E000E146E000E136EA6
:10077000E90E135CFD0E1458D8A0C1EF03F0C3EFCF
:1007800003F0C5EF03F0C9EF03F0134A142AB8EFE2
:1007900003F0000E826E000E166E000E156EE90E4E
:1007A000155CFD0E1658D8A0D8EF03F0DAEF03F071
:1007B000DCEF03F0E0EF03F0154A162ACFEF03F069
:1007C0007F0E826E000E186E000E176EE90E175C1B
:1007D000FD0E1858D8A0EFEF03F0F1EF03F0F3EFA0
:1007E00003F0F7EF03F0174A182AE6EF03F0000EC4
:1007F000826E000E1A6E000E196EE90E195CFD0E67
:100800001A58D8A006EF04F008EF04F00AEF04F03D
:100810000EEF04F0194A1A2AFDEF03F08268000E69
:100820001C6E000E1B6EE90E1B5CFD0E1C58D8A042
:100830001CEF04F01EEF04F020EF04F024EF04F0AE
:100840001B4A1C2A13EF04F0000E826E000E1E6E6F
:10085000000E1D6EE90E1D5CFD0E1E58D8A033EF74
:1008600004F035EF04F037EF04F03BEF04F01D4ADD
:100870001E2A2AEF04F0010E836E000E206E000E79
:100880001F6EE90E1F5CFD0E2058D8A04AEF04F041
:100890004CEF04F04EEF04F052EF04F01F4A202A10
:1008A00041EF04F0000E836E000E226E000E216EEA
:1008B000E90E215CFD0E2258D8A061EF04F063EF31
:1008C00004F065EF04F069EF04F0214A222A58EFA2
:1008D00004F0030E836E000E246E000E236EE90EEC
:1008E000235CFD0E2458D8A078EF04F07AEF04F0D2
:1008F0007CEF04F080EF04F0234A242A6FEF04F029
:10090000000E836E000E266E000E256EE90E255C2D
:10091000FD0E2658D8A08FEF04F091EF04F093EF6E
:1009200004F097EF04F0254A262A86EF04F0070E1C
:10093000836E000E286E000E276EE90E275CFD0EFA
:100940002858D8A0A6EF04F0A8EF04F0AAEF04F00E
:10095000AEEF04F0274A282A9DEF04F0000E836EC4
:10096000000E2A6E000E296EE90E295CFD0E2A5833
:10097000D8A0BDEF04F0BFEF04F0C1EF04F0C5EF65
:1009800004F0294A2A2AB4EF04F00F0E836E000EF9
:100990002C6E000E2B6EE90E2B5CFD0E2C58D8A091
:1009A000D4EF04F0D6EF04F0D8EF04F0DCEF04F05D
:1009B0002B4A2C2ACBEF04F0000E836E000E2E6E15
:1009C000000E2D6EE90E2D5CFD0E2E58D8A0EBEF1B
:1009D00004F0EDEF04F0EFEF04F0F3EF04F02D4A34
:1009E0002E2AE2EF04F01F0E836E000E306E000E12
:1009F0002F6EE90E2F5CFD0E3058D8A002EF05F0E7
:100A000004EF05F006EF05F00AEF05F02F4A302A53
:100A1000F9EF04F0000E836E000E326E000E316EA0
:100A2000E90E315CFD0E3258D8A019EF05F01BEF2E
:100A300005F01DEF05F021EF05F0314A322A10EFE5
:100A400005F03F0E836E000E346E000E336EE90E1D
:100A5000335CFD0E3458D8A030EF05F032EF05F0CE
:100A600034EF05F038EF05F0334A342A27EF05F06C
:100A7000000E836E000E366E000E356EE90E355C8C
:100A8000FD0E3658D8A047EF05F049EF05F04BEFC3
:100A900005F04FEF05F0354A362A3EEF05F07F0EA0
:100AA000836E000E386E000E376EE90E375CFD0E59
:100AB0003858D8A05EEF05F060EF05F062EF05F062
:100AC00066EF05F0374A382A55EF05F0000E836EC1
:100AD000000E3A6E000E396EE90E395CFD0E3A5882
:100AE000D8A075EF05F077EF05F079EF05F07DEF11
:100AF00005F0394A3A2A6CEF05F08368000E3C6E27
:100B0000000E3B6EE90E3B5CFD0E3C58D8A08BEF0F
:100B100005F08DEF05F08FEF05F093EF05F03B4A00
:100B20003C2A82EF05F0000E836E000E3E6E000E32
:100B30003D6EE90E3D5CFD0E3E58D8A0A2EF05F0DB
:100B4000A4EF05F0A6EF05F005EF03F03D4A3E2ABD
:0E0B500099EF05F000EF00F0000101EF03F057
:00000001FF
