:040000003FEF04F0DA
:1006000000414E5449434C4F434B574953450053C7
:05061000544F500000F2
:10061600300E946E000E956E000E936E010EF9EC80
:1006260003F00F0EF9EC03F0380EF9EC03F00C0EA4
:10063600F9EC03F00768086882A824EF03F026EFB8
:1006460003F072EF03F0020E07180810D8A42EEF7D
:1006560003F030EF03F032EF03F007680868074A4B
:10066600082A82B839EF03F03BEF03F034EF03F0CA
:10067600010EF9EC03F007500810D8A445EF03F07B
:1006860047EF03F04FEF03F0010E816E050E066E85
:1006960029EC04F072EF03F007040810D8A456EF13
:1006A60003F058EF03F060EF03F0020E816E010EC7
:1006B600066E29EC04F072EF03F0020E071808101C
:1006C600D8A468EF03F06AEF03F072EF03F0030EAD
:1006D600816E0F0E066E29EC04F072EF03F082AA0B
:1006E60077EF03F079EF03F01FEF03F0020E071820
:1006F6000810D8A481EF03F083EF03F085EF03F031
:1007060007680868074A082A82BA8CEF03F08EEF5A
:1007160003F087EF03F0010EF9EC03F00750081021
:10072600D8A498EF03F09AEF03F0A2EF03F0040EBB
:10073600816E050E066E29EC04F01FEF03F0070428
:100746000810D8A4A9EF03F0ABEF03F0B3EF03F062
:10075600080E816E010E066E29EC04F01FEF03F001
:10076600020E07180810D8A4BBEF03F0BDEF03F084
:10077600C5EF03F0400E816E0F0E066E29EC04F0F5
:100786001FEF03F01FEF03F000EF00F0016E828011
:10079600829201C083FF8284000E036E000E026EF9
:1007A600024A032A03BEE1EF03F0035009E1650E96
:1007B600025CD8A0E1EF03F0E3EF03F0D3EF03F020
:1007C6008294000E056E000E046E044A052A05BECC
:1007D600F6EF03F0890E045C130E0558D8A0F6EF69
:1007E60003F0F8EF03F0E8EF03F01200016E8290D9
:1007F600829201C083FF8284000E036E000E026E99
:10080600024A032A03BE11EF04F0035009E1650E04
:10081600025CD8A011EF04F013EF04F003EF04F02C
:100826008294000E056E000E046E044A052A05BE6B
:1008360026EF04F0890E045C130E0558D8A026EFA7
:1008460004F028EF04F018EF04F0120032EF04F081
:1008560006C0F6FF0800F550C9EC03F0062A06C0EC
:10086600F6FF0800F5500009D8A43CEF04F03EEF6F
:1008760004F02BEF04F01200000EF86E060EF76E71
:0608860000010BEF03F07E
:00000001FF
