:0400000062EF04F0B7
:1006000000414E5449434C4F434B574953450053C7
:05061000544F500000F2
:10061600300E946E000E956E000E936E010E1CEC5D
:1006260004F00F0E1CEC04F0820E1CEC04F0380EE5
:100636001CEC04F00C0E1CEC04F0180E1CEC04F080
:10064600C10E1CEC04F01C0E1CEC04F007680868D4
:1006560009680A6882A832EF03F034EF03F08CEFE2
:1006660003F0020E07180810D8A43CEF03F03EEF83
:1006760003F040EF03F007680868074A082A82B8C3
:1006860047EF03F049EF03F042EF03F0010E1CECD5
:1006960004F0820E1CEC04F0380E1CEC04F0180E6C
:1006A6001CEC04F01C0E1CEC04F007500810D8A437
:1006B6005FEF03F061EF03F069EF03F0010E816E67
:1006C600050E066E4CEC04F08CEF03F007040810E0
:1006D600D8A470EF03F072EF03F07AEF03F0020E86
:1006E600816E010E066E4CEC04F08CEF03F0020EE8
:1006F60007180810D8A482EF03F084EF03F08CEFFC
:1007060003F0030E816E0F0E066E4CEC04F08CEFB8
:1007160003F082AA91EF03F093EF03F02DEF03F0BD
:10072600020E09180A10D8A49BEF03F09DEF03F000
:100736009FEF03F009680A68094A0A2A82BAA6EFF7
:1007460003F0A8EF03F0A1EF03F0010E1CEC04F098
:10075600380E1CEC04F0180E1CEC04F0C10E1CEC58
:1007660004F009500A10D8A4BBEF03F0BDEF03F064
:10077600C5EF03F0040E816E050E066E4CEC04F018
:100786002DEF03F009040A10D8A4CCEF03F0CEEF46
:1007960003F0D6EF03F0080E816E010E066E4CECE8
:1007A60004F02DEF03F0020E09180A10D8A4DEEFAC
:1007B60003F0E0EF03F0E8EF03F0600E816E0F0E3A
:1007C600066E4CEC04F02DEF03F02DEF03F000EF76
:1007D60000F0016E8280829201C083FF8284000E47
:1007E600036E000E026E024A032A03BE04EF04F0F3
:1007F600035009E1650E025CD8A004EF04F006EF91
:1008060004F0F6EF03F08294000E056E000E046EFF
:10081600044A052A05BE19EF04F0890E045C130E7E
:100826000558D8A019EF04F01BEF04F00BEF04F005
:100836001200016E8290829201C083FF8284000EB4
:10084600036E000E026E024A032A03BE34EF04F062
:10085600035009E1650E025CD8A034EF04F036EFD0
:1008660004F026EF04F08294000E056E000E046E6E
:10087600044A052A05BE49EF04F0890E045C130EEE
:100886000558D8A049EF04F04BEF04F03BEF04F015
:10089600120055EF04F006C0F6FF0800F550ECEC28
:1008A60003F0062A06C0F6FF0800F5500009D8A492
:1008B6005FEF04F061EF04F04EEF04F01200000E5B
:0C08C600F86E060EF76E00010BEF03F059
:00000001FF
