:04000000C3EF04F056
:100600000020003000310032003300340035003665
:1006100000370038003900000F0EC16EF00E936EE7
:10062000000E956E95CF94FF000E086E000E076EBB
:100630000F0E7DEC04F00E0E816E81B822EF03F0F8
:1006400024EF03F031EF03F0110E066EADEC04F071
:1006500081A82DEF03F02FEF03F028EF03F071EFE7
:1006600003F081BA36EF03F038EF03F045EF03F003
:10067000130E066EADEC04F081AA41EF03F043EFD8
:1006800003F03CEF03F071EF03F081BC4AEF03F09D
:100690004CEF03F059EF03F0150E066EADEC04F0CD
:1006A00081AC55EF03F057EF03F050EF03F071EF1B
:1006B00003F081BE5EEF03F060EF03F071EF03F033
:1006C000100E7DEC04F0010E066EADEC04F0100E81
:1006D0007DEC04F081AE6FEF03F071EF03F06AEF91
:1006E00003F00D0E816E81B878EF03F07AEF03F01E
:1006F00087EF03F00B0E066EADEC04F081A883EFDC
:1007000003F085EF03F07EEF03F0ADEF03F081BA65
:100710008CEF03F08EEF03F09BEF03F00D0E066EEF
:10072000ADEC04F081AA97EF03F099EF03F092EF9C
:1007300003F0ADEF03F081BCA0EF03F0A2EF03F0F4
:10074000ADEF03F00F0E066EADEC04F081ACABEF35
:1007500003F0ADEF03F0A6EF03F00B0E816E81B84E
:10076000B4EF03F0B6EF03F0C3EF03F0050E066E2F
:10077000ADEC04F081A8BFEF03F0C1EF03F0BAEFD6
:1007800003F0E9EF03F081BAC8EF03F0CAEF03F01A
:10079000D7EF03F0070E066EADEC04F081AAD3EF9D
:1007A00003F0D5EF03F0CEEF03F0E9EF03F081BCE7
:1007B000DCEF03F0DEEF03F0E9EF03F0090E066E65
:1007C000ADEC04F081ACE7EF03F0E9EF03F0E2EF0A
:1007D00003F0070E816E81B8F0EF03F0F2EF03F043
:1007E00022EF04F007500810D8A4F9EF03F0FBEF54
:1007F00003F009EF04F0080E7DEC04F081A803EF8C
:1008000004F005EF04F0FEEF03F0074A082A1BEF9F
:1008100003F007040810D8A410EF04F012EF04F05E
:1008200049EF04F00E0E7DEC04F081A81AEF04F0FD
:100830001CEF04F015EF04F0000E086E000E076EBA
:100840001BEF03F081BA27EF04F029EF04F036EF35
:1008500004F0030E066EADEC04F081AA32EF04F052
:1008600034EF04F02DEF04F01BEF03F081BC3BEFFD
:1008700004F03DEF04F049EF04F0010E7DEC04F0CC
:1008800081AC45EF04F047EF04F040EF04F01BEFBC
:1008900003F01BEF03F000EF00F0016E8280829204
:1008A00001C083FF8284000E036E000E026E024AB6
:1008B000032A03BE65EF04F0035009E1650E025CF4
:1008C000D8A065EF04F067EF04F057EF04F08294CE
:1008D000000E056E000E046E044A052A05BE7AEF6E
:1008E00004F0890E045C130E0558D8A07AEF04F0CA
:1008F0007CEF04F06CEF04F01200016E82908292A3
:1009000001C083FF8284000E036E000E026E024A55
:10091000032A03BE95EF04F0035009E1650E025C63
:10092000D8A095EF04F097EF04F087EF04F08294DD
:10093000000E056E000E046E044A052A05BEAAEFDD
:1009400004F0890E045C130E0558D8A0AAEF04F039
:10095000ACEF04F09CEF04F01200B6EF04F006C018
:10096000F6FF0800F5504DEC04F0062A06C0F6FF2D
:100970000800F5500009D8A4C0EF04F0C2EF04F05D
:10098000AFEF04F01200000EF86E060EF76E0001D5
:040990000CEF03F075
:00000001FF
