:040000004BEF04F0CE
:1006000000414E5449434C4F434B574953450053C7
:05061000544F500000F2
:10061600300E946E000E956E000E936E010E05EC74
:1006260004F00F0E05EC04F0380E05EC04F0076834
:10063600086882A821EF03F023EF03F078EF03F0B8
:10064600020E07180810D8A42BEF03F02DEF03F0C5
:100656002FEF03F007680868074A082A82B836EFC2
:1006660003F038EF03F031EF03F0010E05EC04F070
:10067600380E05EC04F0800E05EC04F01C0E05ECBB
:1006860004F007500810D8A44BEF03F04DEF03F029
:1006960055EF03F0010E816E050E066E35EC04F083
:1006A60078EF03F007040810D8A45CEF03F05EEFC0
:1006B60003F066EF03F0020E816E010E066E35EC56
:1006C60004F078EF03F0020E07180810D8A46EEFB6
:1006D60003F070EF03F078EF03F0030E816E0F0E58
:1006E600066E35EC04F078EF03F082AA7DEF03F096
:1006F6007FEF03F01CEF03F0020E07180810D8A4D2
:1007060087EF03F089EF03F08BEF03F007680868C3
:10071600074A082A82BA92EF03F094EF03F08DEFAE
:1007260003F0010E05EC04F0380E05EC04F01C0E87
:1007360005EC04F007500810D8A4A4EF03F0A6EFC8
:1007460003F0AEEF03F0040E816E050E066E35EC77
:1007560004F01CEF03F007040810D8A4B5EF03F06B
:10076600B7EF03F0BFEF03F0080E816E010E066EC1
:1007760035EC04F01CEF03F0020E07180810D8A49D
:10078600C7EF03F0C9EF03F0D1EF03F0400E816E1F
:100796000F0E066E35EC04F01CEF03F01CEF03F0B1
:1007A60000EF00F0016E8280829201C083FF828496
:1007B600000E036E000E026E024A032A03BEEDEF20
:1007C60003F0035009E1650E025CD8A0EDEF03F0DB
:1007D600EFEF03F0DFEF03F08294000E056E000EDC
:1007E600046E044A052A05BE02EF04F0890E045C75
:1007F600130E0558D8A002EF04F004EF04F0F4EF4E
:1008060003F01200016E8290829201C083FF8284FF
:10081600000E036E000E026E024A032A03BE1DEF8F
:1008260004F0035009E1650E025CD8A01DEF04F048
:100836001FEF04F00FEF04F08294000E056E000E19
:10084600046E044A052A05BE32EF04F0890E045CE4
:10085600130E0558D8A032EF04F034EF04F024EF5D
:1008660004F012003EEF04F006C0F6FF0800F55053
:10087600D5EC03F0062A06C0F6FF0800F55000097D
:10088600D8A448EF04F04AEF04F037EF04F0120062
:0E089600000EF86E060EF76E00010BEF03F079
:00000001FF
