:040000008DEF03F08D
:100600000000016E8280829201C083FF8284000E0E
:10061000036E000E026E024A032A03BE19EF03F0B6
:10062000035009E1650E025CD8A019EF03F01BEF3F
:1006300003F00BEF03F08294000E056E000E046EC3
:10064000044A052A05BE2EEF03F0110E045C270EA6
:100650000558D8A02EEF03F030EF03F020EF03F0A1
:100660001200016E8292829001C083FF8284000E8C
:10067000036E000E026E024A032A03BE49EF03F026
:10068000035009E1650E025CD8A049EF03F04BEF7F
:1006900003F03BEF03F08294000E056E000E046E33
:1006A000044A052A05BE5EEF03F0110E045C270E16
:1006B0000558D8A05EEF03F060EF03F050EF03F0B1
:1006C00012000F0EC16E030E936E000E946E800E1C
:1006D000946E240EAC6E900EAB6E000EB86E810E52
:1006E000AF6E010E31EC03F00F0E31EC03F0800E13
:1006F00031EC03F0060E31EC03F09EAA82EF03F01A
:1007000084EF03F07DEF03F0AECF06F0065001EC6E
:1007100003F07DEF03F000EF00F0000161EF03F064
:00000001FF
