:040000003DEF03F0DD
:100600000000016E8290829201C083FF8284000EFE
:10061000036E000E026E024A032A03BE19EF03F0B6
:10062000035009E1640E025CD8A019EF03F01BEF40
:1006300003F00BEF03F08294000E056E000E046EC3
:10064000044A052A05BE2EEF03F0880E045C130E43
:100650000558D8A02EEF03F030EF03F020EF03F0A1
:100660001200000E956E95CF94FF010E01EC03F081
:100670000F0E01EC03F000EF00F0000131EF03F08A
:00000001FF
