:04000000F1EF03F029
:100600000000000E956E95CF94FF010E7AEC03F07A
:100610000F0E7AEC03F0310E3E6E000EAAEC03F0E2
:10062000290E3E6E010EAAEC03F0210E3E6E020E64
:10063000AAEC03F0210E3E6E030EAAEC03F0190E95
:100640003E6E040EAAEC03F0110E3E6E050EAAECEF
:1006500003F0090E3E6E060EAAEC03F0800E7AEC53
:1006600003F0000E4AEC03F0010E4AEC03F0020E18
:100670004AEC03F0030E4AEC03F0040E4AEC03F0DC
:10068000050E4AEC03F0060E4AEC03F046EF03F0C9
:1006900000EF00F0396E8280829239C083FF82843D
:1006A000000E3B6E000E3A6E3A4A3B2A3BBE62EFAA
:1006B00003F03B5009E1650E3A5CD8A062EF03F00D
:1006C00064EF03F054EF03F08294000E3D6E000ED1
:1006D0003C6E3C4A3D2A3DBE77EF03F0890E3C5C00
:1006E000130E3D58D8A077EF03F079EF03F069EFD0
:1006F00003F01200396E8290829239C083FF8284A7
:10070000000E3B6E000E3A6E3A4A3B2A3BBE92EF19
:1007100003F03B5009E1650E3A5CD8A092EF03F07C
:1007200094EF03F084EF03F08294000E3D6E000E10
:100730003C6E3C4A3D2A3DBEA7EF03F0890E3C5C6F
:10074000130E3D58D8A0A7EF03F0A9EF03F099EFDF
:1007500003F012003F6E080E3F60B1EF03F0B3EFFD
:1007600003F0D4EF03F03F50080DF350400F7AEC44
:1007700003F0000E416E000E406E3E504024D96ED4
:10078000DA6ADF504AEC03F0404A412A41BED2EF18
:1007900003F0415009E1080E405CD8A0D2EF03F00D
:1007A000D4EF03F0BDEF03F012000E0B0F030301B3
:1007B00000001D151515151700001F11111D151D21
:1007C00000000F090901010101000000001C1417BD
:1007D00000001E121F1B1B1F01001F1715171517E6
:1007E0000000AA0EF66E070EF76E000EF86E00EE11
:1007F00001F010EE38F00900F5CFEEFFE550E150C2
:08080000FAE1000101EF03F031
:00000001FF
