:04000000E6EF03F034
:1006000000414E5449434C4F434B574953450053C7
:05061000544F500000F2
:10061600100E946E000E956E000E936E010EA0ECF9
:1006260003F00F0EA0EC03F00768086882A81EEF1F
:1006360003F020EF03F019EF03F0020E071808107D
:10064600D8A428EF03F02AEF03F02CEF03F0076895
:100656000868074A082A82B833EF03F035EF03F03B
:100666002EEF03F0010EA0EC03F007500810D8A4FB
:100676003FEF03F041EF03F049EF03F0010E816E07
:10068600050E066ED0EC03F019EF03F00704081010
:10069600D8A450EF03F052EF03F05AEF03F0020E26
:1006A600816E010E066ED0EC03F019EF03F0020E18
:1006B60007180810D8A462EF03F064EF03F06CEF9C
:1006C60003F0030E816E0F0E066ED0EC03F019EFE9
:1006D60003F019EF03F000EF00F0016E82808292C2
:1006E60001C083FF8284000E036E000E026E024A72
:1006F600032A03BE88EF03F0035009E1650E025C8E
:10070600D8A088EF03F08AEF03F07AEF03F0829423
:10071600000E056E000E046E044A052A05BE9DEF06
:1007260003F0890E045C130E0558D8A09DEF03F064
:100736009FEF03F08FEF03F01200016E829082921A
:1007460001C083FF8284000E036E000E026E024A11
:10075600032A03BEB8EF03F0035009E1650E025CFD
:10076600D8A0B8EF03F0BAEF03F0AAEF03F0829433
:10077600000E056E000E046E044A052A05BECDEF76
:1007860003F0890E045C130E0558D8A0CDEF03F0D4
:10079600CFEF03F0BFEF03F01200D9EF03F006C06E
:1007A600F6FF0800F55070EC03F0062A06C0F6FFC7
:1007B6000800F5500009D8A4E3EF03F0E5EF03F0D5
:1007C600D2EF03F01200000EF86E060EF76E00016F
:0407D6000BEF03F032
:00000001FF
