:04000000ADEF03F06D
:100600000000000E956E000E946E9368000E836ECF
:1006100081680F0EC16E0E0E836E1350010FD96EDE
:10062000DA6ADF50826EC0EC03F00D0E836E11505B
:10063000010FD96EDA6ADF50826EC0EC03F00B0E48
:10064000836E0F50010FD96EDA6ADF50826EC0ECF4
:1006500003F0070E836E0D50010FD96EDA6ADF507A
:10066000826EC0EC03F081A038EF03F03AEF03F0A4
:100670000BEF03F00D4A0E2A0A0E0D180E10D8A427
:1006800044EF03F046EF03F0A2EF03F0000E0E6E0E
:10069000000E0D6E0F4A102A0A0E0F181010D8A463
:1006A00054EF03F056EF03F0A2EF03F0000E106ECC
:1006B000000E0F6E114A122A0A0E11181210D8A439
:1006C00064EF03F066EF03F0A2EF03F0000E126E8A
:1006D000000E116E134A142A0A0E13181410D8A40F
:1006E00074EF03F076EF03F078EF03F0ABEF03F075
:1006F000A2EF03F00E0E836E1350010FD96EDA6A6B
:10070000DF50826EC0EC03F00D0E836E1150010FAE
:10071000D96EDA6ADF50826EC0EC03F00B0E836E86
:100720000F50010FD96EDA6ADF50826EC0EC03F011
:10073000070E836E0D50010FD96EDA6ADF50826E9C
:10074000C0EC03F081B0A7EF03F0A9EF03F07AEF5C
:1007500003F00BEF03F000EF00F0A40EF66E070EAF
:10076000F76E000EF86E00EE01F010EE0AF00900D0
:10077000F5CFEEFFE550E150FAE1000101EF03F0A3
:10078000000E0C6E000E0B6E0B4A0C2A890E0B5CD1
:10079000130E0C58D8A0CFEF03F0D1EF03F0C4EF45
:0E07A00003F012003F065B4F666D7D077F6F12
:00000001FF
