:040000009BEF03F07F
:100600000000000E066E04BE0AEF03F008EF03F0D0
:1006100010EF03F0036C041ED8B0042A010E066E1E
:1006200002BE17EF03F015EF03F01DEF03F0016CAE
:10063000021ED8B0022A010E061A000E086E000E25
:10064000076E03500410D8B428EF03F02AEF03F02C
:1006500052EF03F0010E056E32EF03F0D89003362F
:100660000436052A04AE37EF03F039EF03F02EEF1E
:1006700003F0D890073608360350015C0450025846
:10068000D8A045EF03F047EF03F04CEF03F0035021
:10069000015E0450025A0780D89004320332052EBE
:1006A00039EF03F00650D8B458EF03F05AEF03F0D7
:1006B0005EEF03F0076C081ED8B0082A07C001F0EF
:1006C00008C002F01200000E946E000E0C6E800E38
:1006D0000B6E0BC082FF000E0A6E000E096E094AF7
:1006E0000A2A600E095CEA0E0A58D8A07AEF03F0D5
:1006F0007CEF03F06FEF03F00BC001F00CC002F0D1
:10070000000E046E020E036E01EC03F001C00BF04C
:1007100002C00CF00CBE97EF03F00C5006E10B0486
:10072000D8B095EF03F097EF03F069EF03F065EFB2
:0C07300003F000EF00F0000163EF03F0A5
:00000001FF
